{
  "_format": "hh-sol-artifact-1",
  "contractName": "MockUSDC",
  "sourceName": "contracts/TrustLendMVP.sol",
  "abi": [
    {
      "anonymous": false,
      "inputs": [
        {
          "indexed": true,
          "internalType": "address",
          "name": "o",
          "type": "address"
        },
        {
          "indexed": true,
          "internalType": "address",
          "name": "s",
          "type": "address"
        },
        {
          "indexed": false,
          "internalType": "uint256",
          "name": "v",
          "type": "uint256"
        }
      ],
      "name": "Approval",
      "type": "event"
    },
    {
      "anonymous": false,
      "inputs": [
        {
          "indexed": true,
          "internalType": "address",
          "name": "from",
          "type": "address"
        },
        {
          "indexed": true,
          "internalType": "address",
          "name": "to",
          "type": "address"
        },
        {
          "indexed": false,
          "internalType": "uint256",
          "name": "value",
          "type": "uint256"
        }
      ],
      "name": "Transfer",
      "type": "event"
    },
    {
      "inputs": [
        {
          "internalType": "address",
          "name": "",
          "type": "address"
        },
        {
          "internalType": "address",
          "name": "",
          "type": "address"
        }
      ],
      "name": "allowance",
      "outputs": [
        {
          "internalType": "uint256",
          "name": "",
          "type": "uint256"
        }
      ],
      "stateMutability": "view",
      "type": "function"
    },
    {
      "inputs": [
        {
          "internalType": "address",
          "name": "spender",
          "type": "address"
        },
        {
          "internalType": "uint256",
          "name": "amount",
          "type": "uint256"
        }
      ],
      "name": "approve",
      "outputs": [
        {
          "internalType": "bool",
          "name": "",
          "type": "bool"
        }
      ],
      "stateMutability": "nonpayable",
      "type": "function"
    },
    {
      "inputs": [
        {
          "internalType": "address",
          "name": "",
          "type": "address"
        }
      ],
      "name": "balanceOf",
      "outputs": [
        {
          "internalType": "uint256",
          "name": "",
          "type": "uint256"
        }
      ],
      "stateMutability": "view",
      "type": "function"
    },
    {
      "inputs": [],
      "name": "decimals",
      "outputs": [
        {
          "internalType": "uint8",
          "name": "",
          "type": "uint8"
        }
      ],
      "stateMutability": "view",
      "type": "function"
    },
    {
      "inputs": [
        {
          "internalType": "address",
          "name": "to",
          "type": "address"
        },
        {
          "internalType": "uint256",
          "name": "amount",
          "type": "uint256"
        }
      ],
      "name": "mint",
      "outputs": [],
      "stateMutability": "nonpayable",
      "type": "function"
    },
    {
      "inputs": [],
      "name": "name",
      "outputs": [
        {
          "internalType": "string",
          "name": "",
          "type": "string"
        }
      ],
      "stateMutability": "view",
      "type": "function"
    },
    {
      "inputs": [],
      "name": "symbol",
      "outputs": [
        {
          "internalType": "string",
          "name": "",
          "type": "string"
        }
      ],
      "stateMutability": "view",
      "type": "function"
    },
    {
      "inputs": [
        {
          "internalType": "address",
          "name": "to",
          "type": "address"
        },
        {
          "internalType": "uint256",
          "name": "amount",
          "type": "uint256"
        }
      ],
      "name": "transfer",
      "outputs": [
        {
          "internalType": "bool",
          "name": "",
          "type": "bool"
        }
      ],
      "stateMutability": "nonpayable",
      "type": "function"
    },
    {
      "inputs": [
        {
          "internalType": "address",
          "name": "from",
          "type": "address"
        },
        {
          "internalType": "address",
          "name": "to",
          "type": "address"
        },
        {
          "internalType": "uint256",
          "name": "amount",
          "type": "uint256"
        }
      ],
      "name": "transferFrom",
      "outputs": [
        {
          "internalType": "bool",
          "name": "",
          "type": "bool"
        }
      ],
      "stateMutability": "nonpayable",
      "type": "function"
    }
  ],
  "bytecode": "0x60c060405260096080908152684d6f636b205553444360b81b60a0526000906100289082610113565b506040805180820190915260058152646d5553444360d81b60208201526001906100529082610113565b506002805460ff1916600617905534801561006c57600080fd5b506101d2565b634e487b7160e01b600052604160045260246000fd5b600181811c9082168061009c57607f821691505b6020821081036100bc57634e487b7160e01b600052602260045260246000fd5b50919050565b601f82111561010e576000816000526020600020601f850160051c810160208610156100eb5750805b601f850160051c820191505b8181101561010a578281556001016100f7565b5050505b505050565b81516001600160401b0381111561012c5761012c610072565b6101408161013a8454610088565b846100c2565b602080601f831160018114610175576000841561015d5750858301515b600019600386901b1c1916600185901b17855561010a565b600085815260208120601f198616915b828110156101a457888601518255948401946001909101908401610185565b50858210156101c25787850151600019600388901b60f8161c191681555b5050505050600190811b01905550565b61074e806101e16000396000f3fe608060405234801561001057600080fd5b50600436106100935760003560e01c806340c10f191161006657806340c10f191461010b57806370a082311461012057806395d89b411461014e578063a9059cbb14610156578063dd62ed3e1461016957600080fd5b806306fdde0314610098578063095ea7b3146100b657806323b872dd146100d9578063313ce567146100ec575b600080fd5b6100a0610194565b6040516100ad919061057c565b60405180910390f35b6100c96100c43660046105e7565b610222565b60405190151581526020016100ad565b6100c96100e7366004610611565b61028f565b6002546100f99060ff1681565b60405160ff90911681526020016100ad565b61011e6101193660046105e7565b61042a565b005b61014061012e36600461064d565b60036020526000908152604090205481565b6040519081526020016100ad565b6100a061049c565b6100c96101643660046105e7565b6104a9565b61014061017736600461066f565b600460209081526000928352604080842090915290825290205481565b600080546101a1906106a2565b80601f01602080910402602001604051908101604052809291908181526020018280546101cd906106a2565b801561021a5780601f106101ef5761010080835404028352916020019161021a565b820191906000526020600020905b8154815290600101906020018083116101fd57829003601f168201915b505050505081565b3360008181526004602090815260408083206001600160a01b038716808552925280832085905551919290917f8c5be1e5ebec7d5bd14f71427d1e84f3dd0314c0f7b2291e5b200ac8c7c3b9259061027d9086815260200190565b60405180910390a35060015b92915050565b6001600160a01b0383166000908152600460209081526040808320338452909152812054828110156102f05760405162461bcd60e51b8152602060048201526005602482015264616c6c6f7760d81b60448201526064015b60405180910390fd5b6001600160a01b03851660009081526003602052604090205483111561033e5760405162461bcd60e51b815260206004820152600360248201526218985b60ea1b60448201526064016102e7565b60001981146103765761035183826106f2565b6001600160a01b03861660009081526004602090815260408083203384529091529020555b6001600160a01b0385166000908152600360205260408120805485929061039e9084906106f2565b90915550506001600160a01b038416600090815260036020526040812080548592906103cb908490610705565b92505081905550836001600160a01b0316856001600160a01b03167fddf252ad1be2c89b69c2b068fc378daa952ba7f163c4a11628f55a4df523b3ef8560405161041791815260200190565b60405180910390a3506001949350505050565b6001600160a01b03821660009081526003602052604081208054839290610452908490610705565b90915550506040518181526001600160a01b038316906000907fddf252ad1be2c89b69c2b068fc378daa952ba7f163c4a11628f55a4df523b3ef9060200160405180910390a35050565b600180546101a1906106a2565b336000908152600360205260408120548211156104ee5760405162461bcd60e51b815260206004820152600360248201526218985b60ea1b60448201526064016102e7565b336000908152600360205260408120805484929061050d9084906106f2565b90915550506001600160a01b0383166000908152600360205260408120805484929061053a908490610705565b90915550506040518281526001600160a01b0384169033907fddf252ad1be2c89b69c2b068fc378daa952ba7f163c4a11628f55a4df523b3ef9060200161027d565b60006020808352835180602085015260005b818110156105aa5785810183015185820160400152820161058e565b506000604082860101526040601f19601f8301168501019250505092915050565b80356001600160a01b03811681146105e257600080fd5b919050565b600080604083850312156105fa57600080fd5b610603836105cb565b946020939093013593505050565b60008060006060848603121561062657600080fd5b61062f846105cb565b925061063d602085016105cb565b9150604084013590509250925092565b60006020828403121561065f57600080fd5b610668826105cb565b9392505050565b6000806040838503121561068257600080fd5b61068b836105cb565b9150610699602084016105cb565b90509250929050565b600181811c908216806106b657607f821691505b6020821081036106d657634e487b7160e01b600052602260045260246000fd5b50919050565b634e487b7160e01b600052601160045260246000fd5b81810381811115610289576102896106dc565b80820180821115610289576102896106dc56fea26469706673582212201e94b910ddc4bd4ad137b974da0b0d35ae2603b55146d018a1e48a1a2a9bbb2564736f6c63430008180033",
  "linkReferences": {},
  "deployedLinkReferences": {}
}